:020000040000FA
:06000000020A6B0201A8D8
:03002B0002076861
:0300330002055172
:030043000207436E
:030053000200E9BF
:03006B0002052962
:100083000201370101010503010F10FEFF94230054
:10009300000000CA2200000000FF000000FF000172
:1000A3000A0020FD000206FFFF0101009710000077
:1000B30000FFFFF310E80364006400B801020200CC
:1000C30020000005020701051E02051E020A0A019F
:1000D30003B80B02803E0102FEFFE8030A0500019C
:1000E300CDAB0A1401E0C0E074F21203C9A2AFE47D
:1000F30033FED2AF85A708AFA1EF550854106006B1
:1001030012171575A1EFEF55085408600812171B55
:1001130075A1F78013EFA2E092F0E508A2E082F068
:1001230050061217D575A1FEEEF8EEA2E092AF7F4E
:1001330001020428C0E074F21203C9A2AFE433FE43
:10014300D2AF9061A4E0F8759B00E5915854086024
:10015300087591F712176F8026E5915854106008BF
:100163007591EF1217758017E591A2E092F0E8A25E
:10017300E082F0500A9061A4E0C2E0F01218C5904A
:1001830061A3E0F8E5E9585404600E12189B75E981
:10019300FB906193E0A2E640F2EEF8EEA2E092AFAC
:1001A3007F01020428C0E074F21203C9A2AFE43352
:1001B300FED2AF9061A5E0F8E5BF58540460067520
:1001C300BFFB1218DDEEF8EEA2E092AF7F0102044E
:1001D30028C3E498F8E499F91202158026C3E49A37
:1001E300FAE49BFBE920E7E9120215E498F8E499A5
:1001F300F922C3E498F8E499F9120215E498F8E4B3
:1002030099F9C3E49AFAE49BFB22EB20E7CFE920B8
:10021300E7E0B90010BB0008E88AF084F8AAF022EE
:10022300E4FBC8FA22EB70227B10C833C8C933C978
:10023300335007C39AC3DBF280069A50012ADBEAE4
:10024300C833F4C8C933F4C9FA2275F008E4C833D3
:10025300C8C933C933C99AC99B5004C92AC93BD5F4
:10026300F0ECFBC833F4C8E4C9FA22080808EAC072
:10027300E0EBC0E086F0E7A4FA180986F0E7A42AC9
:10028300FA180986F0E7A42AFA180986F0E7A42ADF
:10029300FA1986F0E7A4FBE5F02AFA190886F0E7D5
:1002A300A42BFBE5F03AFA190886F0E7A42BFBE54B
:1002B300F03AFA18180986F0E7A4C5F02BFBE43AE4
:1002C300FA1908E7C5F0C6A426F6E5F03BFBE43AC5
:1002D300FA1886F0E7A4F6E5F00826F6E43B08F6FC
:1002E300E43A08F6D0E0FBD0E0FA22E4CFC0E0E441
:1002F300CEC0E0E4CDC0E0E4CCC0E075F020E6265B
:10030300F608E633F608E633F608E633F618181867
:10031300EC33FCED33FDEE33FEEF33FFC3EC970913
:10032300ED9709EE9709EF97191919400FFFEC970D
:10033300FC09ED97FD09EE97FE191906D5F0BFEC00
:10034300F709EDF709EEF709EFF7191919D0E0FCF2
:10035300D0E0FDD0E0FED0E0FF222518C582C0E04A
:10036300E51934FFC583C0E0E518C3958224F8106E
:10037300AF088583198582188008858319858218BB
:10038300D2AFCEF0A3E520F0A37808E608F0A3DE11
:10039300FAEFF0A3E58124FAF8E608F0A3E608F003
:1003A300A3E608F0A30808E608F0A3E608F0A315FF
:1003B300811581D0E0FED0E0F8158115811581E823
:1003C300C0E0EEC0E022C0D02518C582C0E0E51928
:1003D30034FFC583C0E0E518C3958224F310AF084A
:1003E3008583198582188008858319858218D2AF81
:1003F300C8F0A3E9F0A3EAF0A3EBF0A37908E709B7
:10040300F0A3D8FAECF0A3EDF0A3EEF0A3EFF0A382
:10041300D0E0F0A3D0E0F0A3D0E0F0A3E520F0A378
:10042300E5F0F0A322851983851882E0C0E0A3E0FC
:10043300F9A3E0FAA3E0FBA37808E0F608A3DFFA48
:10044300E0FCA3E0FDA3E0FEA3E0FFA3E0C0E0A384
:10045300E0C0E0A3E0F5D0A3E0F520A3E0A3F5F02E
:1004630010AF0885831985821880088583198582D2
:1004730018D2AFD082D083D0E0F8D0E032120AD9BC
:10048300B900030204BFE49003017873790F80027B
:10049300F0A3D8FCD9FA7A737B119000867864793B
:1004A300018015E493A3AD82AE838A828B83F0A38C
:1004B300AA82AB838D828E83D8E9D9E77582CD7505
:1004C30083CB740412082D75825D7583207400122A
:1004D300082DE4731575F0108E1A8F1B85821F8506
:1004E300831E851882851983E0CEA3E0CF851F8202
:1004F300851E83EBC9EAC8EDCBECCAC3E833C8E970
:1005030033C9EA33CAEB33CBC3EA9EF51DEB9FF540
:100513001CB35004AB1CAA1DEC33CCED33CDD5F08A
:10052300DAAE1AAF1B22C0E074F21203C9A2AFE421
:1005330033FED2AFE589A2E1500312161975890083
:10054300C2C5EEF8EEA2E092AF7F01020428C0E03C
:1005530074F21203C9A2AFE433FED2AFE58BA2E07B
:100563005003121619758B00C2E8EEF8EEA2E09262
:10057300AF7F01020428D083D082ECC0E0EDC0E05D
:10058300E493A3FCE493A3FDED4C600D120651EC40
:1005930024FFFCED34FFFD80EFE493A3FCE493A37D
:1005A300FDED4C600D1206EEEC24FFFCED34FFFD77
:1005B30080EFD0E0FDD0E0FCE493A3C0E0E493C07F
:1005C300E022851983851882E0A3FEE0A3F5207855
:1005D30008E0A3F608DFFAE0A3FFE0A3C0E0E0A38E
:1005E300C0E0E0A3C0E0E0A3C0E0E0A3C0E010AF40
:1005F300088582188583198008858218858319D216
:10060300AFD083D082020833D083D082E9C0E0E444
:1006130093A3C386F0C5F095F0F908E493A386F09D
:10062300C5F095F0700BE493A3C3994005E90480EA
:1006330002A3E475F002A42582F582E5F03583F583
:1006430083D0E0F9E493A3C0E0E493C0E022C0E0E8
:10065300C3E49396087401939618400FE49366706D
:100663000808740193661870007019A3A3C3E49378
:1006730096087401939618A3A3400DD0E0D0E0D060
:10068300E00205B5A3A3A3A3A3A3D0E0227404802F
:100693000474028000CCC0E0EDC0E0E518C39CCC3C
:1006A300AD1950011D10AF068C188D1980068C18DA
:1006B3008D19D2AF1207AFD0E0FDD0E0FC22740257
:1006C3008000CCC0E0EDC0E0E518C39CCCAD195070
:1006D300011D10AF068C188D1980068C188D19D248
:1006E300AF12078DD0E0FDD0E0FC22C0E0C0F0885F
:1006F300F0E4936670080874019366187000A8F01C
:10070300A3A3700BD0F0D0E0D0E0D0E00205B5A3F6
:10071300A3D0F0D0E022D083D082CCC0E0E493A376
:1007230060061207EF1470FAE493A360061209152A
:100733001470FAD0E0FCE493A3C0E0E493C0E02299
:10074300C0E074F21203C9A2AFE433FED2AFC2C059
:10075300E5D1A2E4500312166DEEF8EEA2E092AFDB
:100763007F01020428C0E0C0D0E8C0E0E9C0E0A2F5
:10077300AFE433F8D2AFC2C7E8F9E8A2E092AFD052
:10078300E0F9D0E0F8D0D0D0E032CAC0E0E493A3DF
:10079300C582CCC582C583CDC583F0A3C582CCC534
:1007A30082C583CDC583DAE5D0E0CA22CAC0E0E0C2
:1007B300A3C582CCC582C583CDC583F0A3C582CC36
:1007C300C582C583CDC583DAE6D0E0CA22700908A5
:1007D3000808226016181818C6C333C608C633C6DD
:1007E30008C633C608C633C6D5E0EA22C0E0E493A0
:1007F300A3D39C5010E493A3C39C400AD0E0D0E061
:10080300D0E0020736A3A3A3D0E022C008C3E0963A
:10081300F50808A3E096420808A3E096420808A357
:10082300E09645087001D3D00822C09FF59FE4737A
:10083300D09F22D083D082C09FE493C0E074019301
:10084300C0E0740293F59F227404800A7403800647
:10085300740280027401C0E0F404120866D0E0124E
:100863000AA8222518F58210AF08F518400C1519AF
:100873008008F51840021519D2AF8519832200C0EC
:10088300D0251810AF08F518500C05198008F51875
:1008930050020519D2AFD0D022BB0102E722C08299
:1008A300C08389828A83BB0003E08002E493D08300
:1008B300D082226016080808C6C313C618C613C61A
:1008C30018C613C618C613C6D5E0EA222518F8E4DD
:1008D3003519F9222518FAE43519FB222518FCE409
:1008E3003519FD22C3E0C696F608A3E0C696F608BE
:1008F300A3E0C696F608A3E0C696F622251810AF25
:1009030008F518400C15198008F51840021519D27E
:10091300AF22C0E0E493A36C7009D0E0D0E0D0E054
:10092300020736A3A3D0E022C3E09608A3E096080B
:10093300A3E09608A3E096A2D265D03322E76670BF
:10094300100809E766700A0809E76670040809E7F2
:100953006622E066701008A3E066700A08A3E066EA
:10096300700408A3E06622C3E697F60809E697F643
:100973000809E697F60809E697F622C3E096F00819
:10098300A3E096F008A3E096F008A3E096F02270A7
:100993000422600D18C6C333C608C633C6D5E0F4B7
:1009A3001822E647F60809E647F60809E647F60877
:1009B30009E647F622E026F008A3E036F008A3E0B4
:1009C30036F008A3E036F022E026F608A3E036F678
:1009D30008A3E036F608A3E036F622E627F6080970
:1009E300E637F60809E637F60809E637F622E6574A
:1009F300F60809E657F60809E657F60809E657F632
:100A030022E056F608A3E056F608A3E056F608A33C
:100A1300E056F622E056F008A3E056F008A3E056AD
:100A2300F008A3E056F022E4C396F608E496F6082D
:100A3300E496F608E496F622C6F4C608C6F4C60899
:100A4300C6F4C608C6F4C622C3E7960809E79608A3
:100A530009E7960809E79622C3E09608A3E09608FB
:100A6300A3E09608A3E0962275D00075813F751820
:100A73000175190300020480E6F008A3E6F008A359
:100A8300E6F008A3E6F022600C08C6C313C618C636
:100A930013C6D5E0F422E0F608A3E0F608A3E0F6D7
:100AA30008A3E0F622CAC0E0E6F0A308DAFAD0E031
:100AB300FA22E8F0A3E9F0A3EAF0A3EBF022E0F8CE
:100AC300A3E0F9A3E0FAA3E0FB22E0FAA3E0FBA38F
:100AD300E0FCA3E0FD22E5C754F84401F5C7790122
:100AE300222518F582E43519F58322C2AF75D69F06
:100AF3000200002212083689260012083612270047
:100B0300120836CE2700120836162800120836516E
:100B13002800120836A728001208360F29001208E9
:100B230036932900120836AC2900120836D1290061
:100B33001208360F2A001208365E2A00120836877A
:100B43002A00120836D62A00120836822B00120811
:100B5300364A2C00120836AF2C001208367C2D00C2
:100B6300120836C22D00120836DE2D001208361088
:100B73002E00120836B82F001208368F30001208E4
:100B830036BB3000120836F130001208361231003D
:100B93001208362131001208362C3100120836E0D3
:100BA3003100120836533200120836C532001208DB
:100BB30036CD3200120836483300120836A133000E
:100BC300120836E43300120836763600120836BCB3
:100BD30037001208364C3A00120836343B0012082C
:100BE30036673B00120836293C00120836D83C0011
:100BF300120836203D00120836823D00120836A73F
:100C03003D00120836B83D00120836303E00120887
:100C130036B83E001208361C3F0012083601400069
:100C23001208362640001208364741001208365A89
:100C33004100120836CD41001208361B420012084B
:100C4300362442001208362444001208366E45004A
:100C53001208367E4500120836F745001208363E64
:100C63004600120836124800120836774A00120866
:100C7300368B4A00120836954A001208369F4A00FE
:100C8300120836A94A00120836B34A00120836CCB5
:100C93004A00120836D64A00120836E04A00120803
:100CA30036EA4A00120836124B001208361D4B0072
:100CB300120836674B00120836714B001208367C57
:100CC3004B00120836A04B00120836C44B00120822
:100CD30036254C00120836704C001208368C4C0036
:100CE300120836F64C00120836424D001208368AB6
:100CF3004D00120836054E001208369F4E001208AA
:100D030036635000120836D15000120836035200E1
:100D13001208362952001208369953001208364D2C
:100D230057001208364D5900120836255B00120889
:100D330036BE5B00120836D05D00120836925E00A4
:100D4300120836DE5E00120836445F00120836567B
:100D53005F00120836A66100120836D3620012083B
:100D630036256300120836CA63001208368565000B
:100D7300120836B66600120836D466001208362901
:100D830067001208362768001208364F68001208F9
:100D930036B26800120836B36900120836266A00B4
:100DA300120836546B00120836BF6B00120836AFB8
:100DB3006C00120836156F00120836436F001208D4
:100DC300363E7000120836DC71001208362C7200B1
:100DD300120836E47200120836997300120836FDC1
:100DE3007300120836B674001208365675001208DE
:100DF30036BA7500120836047600120836417600BA
:100E0300120836A97700120836928001120836CAF2
:100E13008001120836A38301120836E98301120800
:100E2300360685011208366B8501120836BC860129
:100E3300120836AD8901120836CC8A01120836A190
:100E430095011208364296011208363599011208A7
:100E530036359A01120836AB9A01120836E89B011F
:100E6300120836389D011208361F9E011208368873
:100E7300A00112083696A20112083623A301120814
:100E830036F7A30112083683A4011208368DA40194
:100E9300120836B6A40112083663A5011208364EAD
:100EA300A60112083626A7011208368AA7011208DE
:100EB30036B3A701120836E0A70112083631AA019A
:100EC3001208360CAB0112083650AB01120836C1BA
:100ED300AB011208367AAC01120836ACAC01120829
:100EE30036F3AC0112083626AD011208368BAD017C
:100EF300120836DAAD01120836DFAD0112083633B7
:100F0300AE011208367DAE0112083679AF01120820
:100F130036DEAF0112083645B0011208366AB30156
:100F23001208363EB401120836A8B50112083682FB
:100F3300B8011208362AB90112083651BB0112084A
:100F430036F6BB0112083634BC011208360DBE0159
:100F530012083620BE0112083629BE0112083632A5
:100F6300BE0112083647BE0112083666BE011208DA
:100F73003645C00112083698C001120836A2C001D6
:100F8300120836ACC00112083607C10112083651E7
:100F9300C1011208365DC201120836B4C20112083B
:100FA3003603C4011208364CC4011208362CC5019D
:100FB30012083657C6011208360DC7011208360F3C
:100FC300C80112083611C901120836F7C9011208FF
:100FD300360ECA011208364BCA0112083655CA0129
:100FE30012083660CA011208367ECA01120836C0DA
:100FF300CA011208361ECB0112083643CB01120870
:10100300365DCB01120836EACB0112083623CC0138
:1010130012083671CD01120836C3CD01120836DD30
:10102300CE0112083604CF01120836A0CF011208F0
:10103300361CD00112083668D10112083683D2015A
:1010430012083649D301120836F3D3011208367851
:10105300D401120836E0D40112083695D5011208DE
:1010630036E7D5011208364DD60112083616D701D8
:1010730012083639D701120836F1D701120836158E
:10108300D80112083637D80112083698D801120849
:1010930036E3DA01120836BEDB0112083668DC01DA
:1010A300120836A9DE01120836F7DE011208363AB5
:1010B300DF0112083692DF01120836F0DF01120851
:1010C300361AE0011208363EE0011208366FE001DD
:1010D30012083699E001120836E0E00112083634AE
:1010E300E10112083690E10112083691E20112087B
:1010F30036FBE30112083639E40112083662E401D3
:10110300120836F3E4011208363DE5011208366190
:10111300E501120836B4E501120836CFE5011208DD
:10112300368AE601120836B4E6011208360AE701E8
:1011330012083616EA0112083649EA011208360681
:10114300EB01120836E1EB0112083671EC011208CB
:1011530036B2EC0112083626DD0412083665DD04CA
:101163001208364D8002120836F68002120836D570
:101173008102120836F08202120836108302120826
:1011830036328402120836CF85021208363C8602B4
:101193001208361287021208361888021208367DA2
:1011A3008802120836B98802120836128902120818
:1011B300364B8902120836948902120836268A02AF
:1011C300120836C38A02120836988B021208366553
:1011D3008C02120836F28C02120836188D0212089D
:1011E30036458D02120836768D021208364B8E0272
:1011F3001208365B8E02120836AE8E02120836BB18
:101203008E02120836C88E02120836D18E021208D8
:1012130036358F02120836938F02120836DE8F029C
:10122300120836F98F021208362090021208363D52
:101233009002120836499002120836ED9102120804
:1012430036069202120836829202120836959202EC
:10125300120836A592021208364B9302120836BBC7
:101263009402120836CE95021208366E96021208C0
:1012730036789602120836E69602120836F7960278
:10128300120836369702120836649702120836316E
:101293009802120836889802120836CD980212086E
:1012A300362399021208364199021208368F9902A1
:1012B3001208365D9A02120836AB9A02120836ED0E
:1012C3009A02120836709B021208369A9B02120881
:1012D30036D09B02120836DF9B021208363D9C0271
:1012E300120836B59C02120836F69C0212083645DF
:1012F3009D02120836709D021208368A9D0212085A
:1013030036A49D02120836799E02120836839E0285
:10131300120836BE9E02120836CE9E021208361FEF
:101323009F02120836339F0212083651A002120898
:101333003666A00212083600A1021208367FA10207
:1013430012083622A2021208362DA2021208367A99
:10135300A30212083696A302120836EEA30212085D
:10136300365CA402120836A8A402120836C2A402EC
:1013730012083622A502120836C0A5021208360B3F
:10138300A6021208366EA80212083606A90212082F
:10139300367DA902120836C3AB02120836DBAB0254
:1013A300120836DEAB02120836EAAB02120836FE2A
:1013B300AB0212083606AC021208363DAC02120824
:1013C3003631AD02120836BBAD021208363DAE020D
:1013D300120836B2AE021208368AAF02120836ACD1
:1013E300AF0212083643B0021208364FB002120899
:1013F30036ACB002120836AFB0021208361EB10284
:101403001208366AB2021208367DB3021208360891
:10141300B4021208361BB502120836E5B5021208EB
:101423003616B6021208363CB60212083645B60224
:1014330012083674B60212083624B702120836D4DC
:10144300B70212083647B802120836F9B802120872
:10145300366CB902120836ABB902120836F4B90277
:1014630012083673ED0112083611EE0112083660C8
:10147300EE01120836D5EE0112083671EF0112089B
:101483003652F201120836CDF401120836E3F801A0
:1014930012083617F90112083645F901120836C940
:1014A300F90112083611FA011208363AFA01120844
:1014B3003680FA01120836ABFA01120836F6FA0141
:1014C3001208363FDC03120836C7DC031208363134
:1014D300DD03120836A5DD031208366DE00312089A
:1014E3003689E003120836E2E003120836D1E1033D
:1014F30012083696DB02120836EAE3031208364571
:10150300E503120836ADE50312083620E603120898
:1015130036F2E6031208364CE70312083696E70361
:1015230012083695E903120836B3EA03120836D9CE
:10153300EB03120836E6EC0312083654ED031208E7
:1015430036AEED03120836E8ED0312083686EE03D5
:101553001208361F26001208364CD904120836D159
:10156300D904120836F1D9041208360EBD04120844
:101573003680BD04120836CFBD0412083612BE04ED
:1015830012083615BE0412083618BE041208361B9C
:10159300BE041208361EBE0412083682BE041208A8
:1015A30036E9BE04120836F7BE0412083663BF04D8
:1015B30012083660C004120836EBDD04120836FC4C
:1015C300DD041208361AFE0212083628FE0212083B
:1015D3003641DE041208364CDB041208365CDB04A9
:1015E30012083679DB041208360DDC04120836EFD4
:1015F300C3041208368AC40412083680C6041208CB
:1016030036CCD604120836FFD60412083670D70437
:1016130012083684D704120836D1D704120836F8D4
:10162300FB0312083611FC03120836A3FC0312084D
:1016330036A1FD0312083692FF03120836B3DD0408
:101643001208360080041208364880041208364413
:10165300830412083616840412083601850412081E
:1016630036828604120836C8880412083652890462
:10167300120836A28904120836B08904120836C447
:101683008904120836DC8904120836F48904120826
:10169300361C7800120836567800120836E57900B1
:1016A300120836447A00120836707A001208368916
:1016B3007A00120836A77A00120836837B001208D4
:1016C30036AF7C00120836777D00120836847E0020
:1016D300120836B67E00120836E17E001208360C78
:1016E3007F00120836377F00120836ACD304120885
:1016F30036D5D304120836E9D30412083633D4049A
:1017030012083672D404120836B1D40412083614FF
:10171300D50412083617D50412083625D504120845
:101723003636D5041208368BC004120836C5C004F9
:1017330012083622C10412083650C1041208369D1D
:10174300C104120836DBC10412083616C20412089B
:101753003640C20412083666C204120836C9C204EF
:10176300120836F7C2041208368AC304120836A2D6
:10177300C304120836B7C3041208366FDD04120817
:10178300368CDD04120836B0DD041208369CA6043C
:1017930012083630A8041208363EA8041208365A36
:1017A300A8041208367FA804120836DCA80412081D
:1017B3003638A904120836CDA90412083652AA04F1
:1017C300120836E3AA04120836D5AB04120836E928
:1017D300AB04120836FCAB041208361EAC04120824
:1017E300361BDC041208364CDC041208367DDC049C
:1017F300120836AADC04120836F0B5041208365F64
:10180300B60412083684B60412083627B704120841
:101813003685B904120836A8B904120836BAB904D1
:10182300120836C8B904120836F1B9041208360989
:10183300BA0412083621BA0412083639BA04120857
:1018430036E5BA0412083662BB0412083696BB04A6
:10185300120836EBBB0412083640BC041208366E7D
:10186300BC041208367CBC0412083693BC0412086C
:1018730036FDBC04120836627F00120836D1EF032E
:101883001208361AF00312083646F0031208365FC0
:10189300F0031208367FF003120836E9F00312084A
:1018A3003623F1031208366AF60312083633F803B7
:1018B30012083679F803120836E6F803120836944C
:1018C300FA03120836C4FA03120836DEFA031208C2
:1018D30036F2FA0312083646FB03120836A9FB0355
:1018E300120836BEFB0312083647D5041208365ECB
:1018F300D50412083687D504120836ADD50412086C
:1019030036DAD5041208360AD6041208362BD60462
:1019130012083662D6041208368AD604120836DB59
:10192300DC04120836AAB104120836C1B104120845
:10193300362BB30412083660B30412083688B30496
:10194300120836B5B304120836CEB3041208360FA4
:10195300B4041208368DB404120836D9B40412083C
:10196300362DB50412083664B50412083696B5044C
:101973001208361CCE041208365BCE04120836B4A5
:10198300CF04120836B7CF0412083667DA041208F8
:101993003690DA04120836B0DA04120836D0DA04C4
:1019A30012083628DB041208363EDB04120836021E
:1019B3008A04120836488A04120836C48A041208B4
:1019C30036E58A04120836098C04120836178C048B
:1019D300120836738C04120836A68C04120836B922
:1019E3008C04120836448D04120836DD8D04120867
:1019F300362B8E04120836A88E04120836148F0470
:101A03001208364D8F04120836D58F041208365B40
:101A13009004120836B290041208360F910412088B
:101A23003621910412083633910412083659910471
:101A3300120836629104120836A592041208361071
:101A4300D2041208361FD3041208369BC6041208A8
:101A530036E0C6041208362DC704120836CAC80475
:101A63001208360CE302120836C2E40212083611D9
:101A7300E50212083680E702120836E5E70212088B
:101A830036E5EA0212083647EB021208367BED020E
:101A930012083667EE02120836CAEE0212083662E0
:101AA300EF0212083605F00212083650F00212084F
:101AB3003698F002120836E7F002120836B5F20241
:101AC3001208366DF4021208363BF7021208367D0F
:101AD300F702120836D9F702120836E8F70212089D
:101AE3003650F80212083600F902120836DEFC02FC
:101AF300120836A5FD0212083616DE041208363126
:101B0300DE0412083657AC0412083677AC04120808
:101B13003667AD04120836B0AD04120836D0AD04F2
:101B23001208360EAE0412083669AE04120836A740
:101B3300AE04120836F1AE0412083699B104120845
:101B4300360FD80412083696D804120836E7D8049C
:101B53001208362AD9041208360D930412083613D4
:101B63009304120836709304120836FD9304120886
:101B73003640940412083671940412083682940491
:101B8300120836979404120836A89404120836B63D
:101B93009404120836C79404120836EA940412080F
:101BA300363B9504120836B59704120836CD9804CF
:101BB3001208368C9904120836F3A6031208365D10
:101BC300A7031208366EA703120836D3A803120818
:101BD30036C6A903120836E0A90312083646AA033B
:101BE300120836C3AA03120836DBAA0312083631D9
:101BF300AB0312083652AB0312083640AE03120889
:101C03003698AF03120836FEAF0312083669B203E3
:101C1300120836A5B203120836FAB2031208363F89
:101C2300B30312083676B303120836B3B3031208AC
:101C330036CBB303120836B7B40312083615B5030F
:101C430012083671B503120836EAB60312083631A4
:101C5300B70312083693BA03120836DABA03120826
:101C63003642BC0312083681BC0312083612BD0388
:101C730012083622BD0312083676BD031208360752
:101C8300BE0312083641BF0312083683BF0312088E
:101C93003691BF03120836A6BF03120836C6BF0328
:101CA30012083655C00312083692C003120836C90B
:101CB300C00312083611C10312083634C1031208D7
:101CC300363EC10312083692C103120836D2C1034D
:101CD300120836F9C1031208365BC203120836D55F
:101CE300C20312083613C5031208361BD0041208A8
:101CF300362CD0041208360FD104120836FD7F00AB
:101D03001208360080031208362380031208363780
:101D13008003120836C9810312083646820312086B
:101D230036CF8203120836A883031208363A840397
:101D3300120836EA84031208369A85031208369984
:101D430086031208365E8703120836C38703120818
:101D530036568E031208363291031208366E9103FB
:101D6300120836719103120836009403120836BF25
:101D73009803120836209A03120836219C0312088E
:101D8300368FA003120836A4A00312083623A30338
:101D93001208362DA403120836B3A5031208367AA7
:101DA300A6031208364AC7031208361CC8031208D2
:101DB30036A1C80312083660C90312083602CA03E3
:101DC30012083698CA03120836D0CE03120836F723
:101DD300D003120836E2D10312083672D503120873
:101DE300366AD603120836FBD6031208367BD803AD
:101DF30012083629D9031208368DDA03120836DCA5
:101E03009904120836459A04120836939A04120864
:101E1300362B9B04120836729B04120836E09B048F
:101E2300120836999C04120836C99C04120836D746
:101E33009C04120836E59C04120836EA9C04120836
:101E430036749D04120836909E04120836C99F0406
:101E53001208363BC904120836B3C904120836E720
:101E6300C904120836CACA0412083638CB04120849
:101E7300366DFB011208368FFB01120836ECFB01AD
:101E83001208360DFC0112083639FC0112083658C7
:101E9300FC0112083675FC0112083694FC01120885
:101EA30036A0FD01120836ECFD01120836FCFD01D7
:101EB30012083629FF0112083639FF011208364786
:101EC300FF0112083655FF0112083668FF01120898
:101ED3003674A004120836F6A50412083616A604B2
:101EE3001208361BA6041208364DCC0412083665B8
:101EF300CC0412083619CE04120836D17F0012081A
:101F03003665DB0212083649DB02120836E1DA02D3
:101F13001208369ADA02120836E4D9021208363465
:101F2300D60212083604D602120836D1D502120898
:101F330036BDD502120836CBD40212083649D40274
:101F4300120836EAD3021208365BD202120836E9C7
:101F5300D102120836E6D102120836E3D002120883
:101F630036BDD002120836F9CF0212083643CE022C
:101F7300120836E3CD02120836B4CD02120836B188
:101F8300CD021208369CCD02120836C52500120870
:101F930036DBE202120836BDE202120836FAE1022B
:101FA30012083667E10212083612E0021208365CA4
:101FB300CD021208364CCD0212083656CC02120856
:101FC3003685DD0212083615CC02120836DBCB0249
:101FD30012083680CB021208364FCB02120836D6CF
:101FE300DC0212083618C8021208364DEF03120835
:101FF300362AC702120836E4C50212083692C50211
:1020030012083686C502120836EDC402120836BB22
:10201300C30212083616C102120836B9BE021208EC
:10202300366DBE0212083652BD02120836E7BC02F4
:1020330012083611BC02120836CDBB0212083694C0
:10204300BA02120836D5DB021208365BBA0212084E
:102053003629BA021208363BE20300000080FB8FE8
:10206300000100691187000100681124000200A526
:102073001125000200A71126000200A91127000262
:1020830000AB1128000100AD1129000100AE11843D
:10209300000400AF1186000100B3112A000100B44F
:1020A300112B000100B5112C000100B8112D0008FF
:1020B3000050112E000100B9112F000100BA113098
:1020C300000100BB1131000100BC113200010058B6
:1020D3001133000100591134000100BD1136000114
:1020E300005A1138000100BE1139000100B71183F5
:1020F300000200D011630001006511640001004774
:102103001165000100B6116D000100661171000830
:1021130000481166000100CF1143000100C01144C3
:10212300000200C11145000100C31146000200C4B2
:1021330011470008005D1148000100C6114B000162
:1021430000C71104000100D211A1000100D511370D
:10215300000100D41188000100D3113C0001005B91
:10216300113D000100BF1149000200C811670001C1
:102173000067114D000200CA114E000100CC114F3F
:10218300000200CD113E0001005C110000000000C0
:1021930000000136360101000102010001030100C4
:1021A30001040106060502000007010034080100CE
:1021B3000F090401010D0100FF0E080000170200C2
:1021C30000190100FF1A0100011B0100FE1C0100A0
:1021D300081D0200001F010001200100012102006F
:1021E300002301000F240200002601000127010043
:1021F30008280200FF2A0100072B0102402C0100DE
:10220300002D0100012E0100012F0100FF30010B01
:102213001C310800003A0100083B01000F3C01009B
:10222300013D0100FF3E040000420400004604009B
:10223300004A0400004E040000520400005604004B
:10224300005A0400005E20FFFF3600010006000074
:10225300000F000000000000000000000000000369
:10226300FFFF00000403FFFF0000FFFF0FF4010066
:1022730005C4040320000100000B0000000000005F
:10228300000003010F000000000000000000000038
:10229300000000000000000000000000000000003B
:1022A300000000000000000000000000000000002B
:1022B300000000000000000000000000000000001B
:1022C300000000000000000103710301030103018A
:1022D30003010301032203020301031003000300AC
:1022E300030003000300030003000342030003246D
:1022F300030603000300030403120325032303253A
:102303000323030403040300030003000344030043
:102313000300032303000365032100350381030046
:102323000305030003000300030003250323030342
:102333000471040204600411047004020402040121
:10234300040204100461040004140463047304729B
:102353000462044304000413040604000400040498
:102363000412040004000400040004510464000087
:102373000400040004440400040004000400046591
:10238300040004350481046400050400048304008C
:10239300040300710030016000110070003102205D
:1023A30003500480001000610000001400630073F8
:1023B30000720062004300000013000600000000EA
:1023C30000040012000000000000000000040004EC
:1023D30000370037003C024400000000000000000A
:1023E3000065000000350081000000050000008347
:1023F300000000010171010101010111010101311D
:1024030001010101018001100161013B001400631E
:102413000173017201620143010001130106013DD1
:102423000135000401120100010001000100010453
:10243300010401330133013C014401320136000040
:1024430001000165010001350081010001050182E0
:102453000183010001030271023001600211027065
:10246300020102020202028002100261023A0041EA
:102473000063027302720262024302000213023813
:102483000000020002040212020002000200020025
:102493000204020402370037003C024402000239FE
:1024A30000000200026502000235028102000205FB
:1024B3000282028302000201450E067B0E08750E9E
:1024C3000B930E10BB0D024B0E05690E07510E0C3C
:1024D3002D0E0D390E64F30BFF00000000C31D1316
:1024E30000631D0100C31D02002D1D0300331D04E5
:1024F30000391D05003F1D06004B1DFFFF000007AF
:10250300ECFDFDFDECDCDCCCBCACAC9C9C8C7C7CA5
:102513006C6C5C5C5C4C4C3C3C2C2C1C1C03EAF54A
:10252300E5D5D5C5B5A59595858575756565555568
:1025330045453535252515150500160F00000B15E6
:102543000B020002220F3300000E0C0E020B040BD1
:102553000A0708000F00011916181616182303009E
:1025630000034A49434E181A25050230301718193B
:1025730021301B1D1F3000393D3F373C3C362C4476
:102583002D303016181920231A1C1E3002040201A4
:10259300010101090200BE040A7F003C000E000095
:1025A300000000E8033C0008100C0A032809090096
:1025B300040003FF1E1E01050C0504040810000897
:1025C300030CC082C0837900EA1227CA3BF583C09B
:1025D30082C08390033812754CD083D082C3E09CB1
:1025E300A3E09D500CEA240B1226171225F7600175
:1025F30009024632EA75F00BA4FAA8F075F00BEB6A
:10260300A428FB90033AE02AF8A3E03B8882F583F1
:10261300E0540F22F582E43B1257452274F712036C
:102623005D8908124DDEA3E0F9E875F00BA4F8AC60
:10263300F075F00BE9A42C12297BE8FEE9FF740185
:10264300650860067402650870228A828B83122CE7
:10265300A7740265087021EA2403FA50010B120BD8
:1026630027E970148E828F83E4F0800CEA2403FC44
:10267300E43B122C9E120B218E828F83E0D2E7F073
:10268300121C97024A8674F412035D122D617900BD
:102693008E828F83E06075890A890B8064E50A75F1
:1026A300F00BA4FAA8F075F00BE50B1226037049A2
:1026B300E50A75F00BA4F8AAF075F00BE50B1228E8
:1026C300FF8E828F83E08508828509831245E61297
:1026D3002C1EEE2403FCE43F1227BD120B21124CE7
:1026E30019126176123EAFD2E7F0121C977901906E
:1026F3000338E0F50AA3E0F50B050AE50A700205C5
:102703000B122B7AE50A9AE50B9B40910250CC748D
:10271300F512035DEAFEEBFF750A01740B120AE47E
:1027230012366EEC4D6015EC1227CA3D122D6F79EF
:1027330001121553E508450960758023E50845092D
:1027430060441227C83509122D6F1227BE120B27BA
:10275300E96401701BEEFAEFFB120AF7E9F50A854B
:102763000882850983122C167902AA08AB09801105
:10277300122C9F120B27E9640170347903EEFAEFF0
:10278300FB12155380298E828F83A3E064FE7003AE
:10279300A3E0F4700B122C9F120B27E96401700C59
:1027A300EEFAEFFB120AF7E9F50A8003750A000255
:1027B30031D9E50A2403FCE4350BFDE5082403FACB
:1027C300E43509FB22E50812657B2274F712035DE9
:1027D300900338124D36EA4B602FEA75F00BA4FADA
:1027E300A8F075F00BEBA428FBEAFEEBFF121A57D7
:1027F30090033A124D3690033A1257306012EEFCB2
:10280300EFFD79001219BB800790033AE4F0A3F0BF
:10281300024A8674F612035DE4F508F50978081296
:10282300085390033812366975F00BA4FCA8F075B1
:10283300F00BEDA428FD7A237B00121ADB7402123D
:102843000881E9FE6003120B0FEEF90230EC74F617
:1028530012035D74FF1208FF7E007F00803C851821
:1028630082851983E41233D8120853750801750958
:10287300007808120853EEFCEFFDEC75F00BA4FC96
:10288300A8F075F00BEDA428FD7A237B00121AE75C
:1028930074041208810EEE70010F12298740BF7471
:1028A300010230E974F612035D7E007F008039EE89
:1028B300F8EFF91228F3780812085375080B750915
:1028C300007808120853EEFCEFFDEC75F00BA4FC46
:1028D30075F00BEDA42AFD7A237B00121AED740424
:1028E3001208810EEE70010F12298740C20230ECEC
:1028F300E875F00BA4F8AAF075F00BE9A42AF99097
:10290300033AE028F508A3E039F5092274F6120327
:102913005D7E007F00804AEEF8EF12296C88828981
:1029230083E0A2E75036C2E7F08582088583097801
:102933000812085375080B7509007808120853EE3E
:10294300FCEFFDEC75F00BA4FC75F00BEDA42AFD78
:102953007A237B00121AE774041208810EEE7001C9
:102963000F12298740B10230ECF9E875F00BA4F897
:10297300AAF075F00BE9A42AF990033AE028F8A32A
:10298300E039F922900338124A6DC3EE98EF992289
:10299300C082C083EC4D6005121B5380097C087D07
:1029A3000079001219BB02463274F612035D7900F6
:1029B300EA4B60177800EA28F582E4125E8D600422
:1029C3007901780808E8C3940840EB0230EC74F707
:1029D30012035D74F31208FFECFEEDFF8518828588
:1029E3001983E4F004120AE4EAF0A3EB124A5F123B
:1029F3000B457403120AE4AC82AD83EEFAEFFB12CB
:102A03000B21EEFAEFFB120B27024A8174F7120334
:102A13005D74F31208FFECFEEDFF851882851983C0
:102A2300E4F0EAFCEBFD7403120AE4AA82AB83121E
:102A33000B21AA18AB19120B4B7401120AE41245AD
:102A4300F38E828F83124A5074FE68700374FF6999
:102A53006004790180027900024A8174F712035DF0
:102A6300EAFEEBFF121F8BE9F5087401650870118C
:102A7300122AC7F4FA88828983E05A4480F0121C30
:102A830097023E2474F712035DEAFEEBFF7508001C
:102A93008E828F83E0602A121F8BE9F5087401652B
:102AA30008701E122AC7FA88828983E05A70128E30
:102AB300828F83E04480FA88828983E04AF0121C83
:102AC30097023E24124C1D123FFC12296C8E828FFA
:102AD30083E02274F412035D8A088B097C007D0075
:102AE300EA1227C0120B21E508122C387900850859
:102AF30082850983A3E064FE7003A3E0F460757E1E
:102B0300007F008066EEFAEFFB1225F76058EEFABD
:102B1300EFFBEA75F00BA4FAA8F075F00BEBA42811
:102B2300FB90033AE02AF50AA3E03BF50B85088204
:102B3300850983A3125E68850A82850B83A3E06AF5
:102B43007003A3E06B701FE50A2403FAE4350BFB63
:102B5300120B27E9640170061227B5120B21122C00
:102B63002D79011273800EEE70010F122B7AEE9AFB
:102B7300EF9B40910250CC900338125747C3227405
:102B8300F312035D8A088B098A828B83122C16EA5F
:102B9300122C38750C00EA1227C0120B27E96401C6
:102BA300706A7E007F00805FEEF8EFF9E875F00B46
:102BB300A4F8AAF075F00BE9A42AF990033A12736A
:102BC300F2E0540F603CEEF8EFF9E875F00BA4F86F
:102BD300AAF075F00BE9A42AF990033AE028F50A64
:102BE300A3E039F50B1227B5121B4DE964017012EE
:102BF300850A82850B83122C1E122C2D750C011253
:102C030073800EEE70010F122987409CA90C7F057B
:102C13000205C5A374FEF0A304F022A3124A6D8536
:102C23000882850983A312441E22E508122C42EE72
:102C3300F0A3EFF022122C4274FEF0A304F0221250
:102C4300657F3509F5832274F512035DEAFEEBFF18
:102C53008E828F83122C167C007D00122C9F120B08
:102C630021EEFAEFFB121F8BE9F50A7401650A7076
:102C730027124A661228F3850882F583122CA712BD
:102C830027BE120B27E96401700EE5082403FCE458
:102C93003509122C9E120B210231D9FDEE2403FAC1
:102CA300E43FFB22A3125E7212441E2274F212034B
:102CB3005D74E61208FF122D61750C01750800752D
:102CC3000900750A00750B00851882851983E4F0E5
:102CD300EE2403FCE43FFD7403120AE4AA82AB83EF
:102CE300120B21AA18AB19120B4BE96401701F7464
:102CF3000B120AE4122D717401120AE4125E6C7055
:102D030003A3E069604AA818A91988088909740D02
:102D1300120AE41245E5A31245F3740E120AE412F3
:102D23004A50740D1208D7120B45E96401700974F7
:102D33000D1208CF880A890B780A120853AC08AD24
:102D430009EEFAEFFB120AFD7402120881E9F50C91
:102D5300EEFAEFFB120B3FA90C741A025DC8EAFEF0
:102D6300EBFF124C1D74FEF0A304F022F583123F17
:102D7300FCF9124C1D12441E22C082C083780079D4
:102D830000800508E8700109122B7AE89AE99B5044
:102D930029E8FAE9FBEA75F00BA4FAACF075F00B3D
:102DA300EBA42CFB90033AE02AFCA3E03B8C82F5D6
:102DB30083E0540F70CD790080027901024632C05E
:102DC30082C0839004D7E49375F016A4FCADF07928
:102DD300FF7A657B0A1219BB02463274F612035D51
:102DE300EAF87508007D008012ED125E7FC39940FA
:102DF30009E0FAE8C39A400205080D9004D7E4936A
:102E0300FAEDC39A40E3AA087B000230EC74F01297
:102E1300035D74F31208FF8A0C8B0D8C088D0989EE
:102E23000AEC45096016AA08AB09120B938A0E8BAC
:102E33000FAE0EAF0FEE4F6003022F037B00800136
:102E43000B12616C500F122FAB70F5746528FE7472
:102E53000A39FF80047E007F00EE4F7003022F5774
:102E63009025A4122F7E60217403650A6006740402
:102E7300650A70157A047903120B699004D7E493F9
:102E8300FC9025A4122F8450299025A2122F7E6036
:102E9300287401650A60067402650A701C7A027957
:102EA30001120B699004D7E493FC9025A2122F849E
:102EB30040077A007B00022F7B8518828519837473
:102EC30001F0120AE4E50CF0A3E50DF0AC08AD093E
:102ED3007403120AE4AA82AB83120B21AA18AB195A
:102EE300120B57740B120AE41244178E828F83A3BA
:102EF300A3A3A3A3A3E4127548AA0CAB0D1210C19C
:102F03007800E50A6007C39405500278048E828F27
:102F130083E50CF0A3E50D126B2CE50AF0E88E8235
:102F23008F83A3A3A3A3A312617D5001097A027B1C
:102F33000012020D1239EFA3125DA8A3123A33E572
:102F43000A600DC3940350081239BE122F9C8003EC
:102F53001239D5F07A047900120B698A089004D7E4
:102F6300E493FAC3E5089AEB94004005901175E4E5
:102F7300F0120F9BEEFAEFFB023337122F94E8495E
:102F830022122F94ECC398F8E499F9C3EA98EB99C9
:102F930022E493F8740193F922F9EE2414F582E400
:102FA3003FF583E8F0A3E922EB75F016A4F8A9F046
:102FB300123A28F42274F212035D74F31208FF8AA2
:102FC300088B09ECFEEDFF750A00EEFAEFFB120B1E
:102FD300938A0C8B0DA80CA90DE849700302307C71
:102FE30088828983E065087004A3E06509700302A1
:102FF300307C88828983A3A3A3A3E0C3940550797B
:10300300888289831269AC124E9AE060348882897F
:1030130083A3A3A3A3E0C39403502690259EE49324
:10302300FA740193FB123D119025A8E493FA7401FD
:1030330093FBE82414F582E439F583EAF0A3EB80EB
:103043000DE82412123083F0E82414123083F08543
:1030530018828519837401F0120AE41269ACF0EE48
:10306300FCEFFD7403120AE4AA82AB83120B21AABC
:1030730018AB19120B57750A01A90A740D025DC822
:10308300F582E439F58374FEF0A3042274F6120387
:103093005D120B8D8A088B09A808A909E8496014F9
:1030A30088828983A3A3A3A3E06009C39405500482
:1030B300790180027900803174F612035D120B8D61
:1030C3008A088B09A808A909E849601488828983BA
:1030D300A3A3A3A3E06009C394035004790180026E
:1030E3007900800574021208817F020205C574F617
:1030F30012035D120B8D8A828B83E5824583600BFD
:10310300A3A3A3A3E0700479018002790080DAC04D
:1031130082C083EAFCEBFD7A007B0002462FC0826B
:10312300C0837C007D0002462F74F512035D74F3A7
:103133001208FFEAFEEBFF8C088D09C3EC94F8ED4F
:1031430094FF4004EE4F606A750A00801974FF65AE
:1031530008700474FF6509600B126CA97004A3E086
:103163006509603B050A9004D7E493F8E50AC39820
:103173005040E50A122FAC60EBEE4F60D01231C025
:10318300120AE4124A5B120B51E960D87403120A63
:10319300E4AC82AD83EEFAEFFB121B4DE960C5E5AB
:1031A3000A75F016A4F8A9F0746528FA740A39FBB5
:1031B30080047A007B00740D120881801B851882BD
:1031C3008519837401F0746728F582740A39F583CD
:1031D300124A6D740B22A90A7F030205C574F41207
:1031E300035D74F31208FF750800120B938A0A8BB0
:1031F3000BAE0AAF0BEE4F601F1232431231D312E4
:103203000AE4124A5B120B397C167D0079FFEEFA51
:10321300EFFB1219BB7508017A047900120B698A56
:103223000A9004D7E493FAC3E50A9AEB9400500991
:103233009011757401F0120F9BA908740D0250C907
:103243008518828519837401F08E828F83A3A3224C
:1032530074F712035DE9FC74FE6A700374FF6B7DFF
:10326300007003802C0D1232B55026ED122FAC6086
:10327300F412778D6A7003A3E06B70E98012ED7529
:10328300F016A4F8A9F01277806018E064036013C5
:103293000D1232B55015EC60E5123A1C60F2C3947E
:1032A3000550ED126EED125E6580047AFE7BFF021F
:1032B3004A869004D7E493F8EDC39822120BA50233
:1032C3004632C082C083790180F274F012035D8AB2
:1032D3000A8B0B7A047901120B698A0C8B0DEA4570
:1032E3000D6040EA2AFAEB33FB121A578A088B095E
:1032F300AE08AF09EE4F60267AFE7BFF120BAB746C
:10330300FE6A700374FF6B601E8508828509831251
:103313004D36E5082402F50850E2050980DE750CF8
:103323000080047E007F00850A82850B83E50C12F2
:103333004C6A8005740D1208817F080205C5E49369
:10334300F8ECC3982274F612035DE4F508F50978E6
:10335300081208539004D7E493F50874037808120D
:10336300099212365B121ADB7402120881E9FE74A9
:103373000A6E6024E4F508F50978081208539004EE
:10338300D7E49325E0FCE433FD7A3F7B00121ADB9C
:103393007402120881EE6003120BBD02284C74F60E
:1033A30012035D74FE1208FF851882851983E4F009
:1033B300A31233D81208537508027509007808124E
:1033C30008537C007D007A227B00121AE7740412F2
:1033D30008810230E7F0A818A91988088909780834
:1033E3002274EE12035D74E41208FF8A0E8B0F8CB5
:1033F300088D09750C007A227B00121AE18A0A8B68
:103403000B7A3F7B00121AE18A108B11AE10AF11B9
:10341300E50A450B6017E508650A7004E509650BC5
:10342300600BAC0AAD0B7A227B00121AF3743012D4
:103433000AE4E0F50AA3E0F50BEE4F6015E50A6E2A
:103443007003E50B6F600BEEFCEFFD7A3F7B001220
:103453001AF3E4F510F5117810120853AC08AD090E
:103463007A227B00121ADB7402120881E9640A7063
:1034730003023651E4F508F5097808120853AC0A3B
:10348300AD0B7A3F7B00121ADB7402120881E964E8
:103493000A700302365174041208CF880889097828
:1034A3000812085375080275090078081208537C3E
:1034B300007D007A017B03121AED7404120881E97E
:1034C3006003023651851882851983E4F0A3F0FE68
:1034D3000235C874061208CF8808890978081208CB
:1034E3005375080875090078081208538E08740389
:1034F3007808120992E5082402FCE43509FD7A01F3
:103503007B03121AED7404120881E9600302365139
:103513007408120AE4E0F47003A3E0F470030235C4
:10352300C774061208CF88088909780812085375EA
:10353300080875090078081208537404120AE41283
:10354300366E7403780812099212365B121AE77406
:1035530004120881E9600302365174021208CF880D
:103563000889097808120853750802750900780854
:10357300120853EE25E0FCE433FD7A027B03121AB2
:10358300ED7404120881E9703874021208CF8808B8
:10359300890978081208537508027509007808121A
:1035A30008537404120AE41236692CFCED33FD7AD5
:1035B3003F7B00121AE77404120881E960030236A4
:1035C30051123B240E851882851983C082C08390D3
:1035D30004D7E493F8D083D082C3E098A3E09400A7
:1035E3005021851882851983C082C0837404120A0E
:1035F300E41245F3D083D082C3E098A3E09950034B
:103603000234D6A818A9198808890978081208531A
:1036130075080275090078081208537C007D007A4A
:10362300227B00121AE77404120881E97020AC0EA1
:10363300AD0F7A017B03121AF3E97012742E120A8A
:10364300E412754C7A027B03121AF3E96003750CDA
:1036530001A90C741C025391E5082402FCE435090A
:10366300FD7A227B0022127550EC22E0F508A3E0DC
:10367300F5092274EC12035D74FE1208FF750A004B
:10368300851882851983E4F0A3F09004D793F5108D
:10369300F50875090074037808120992E5082402F5
:1036A300F50850020509E51025E0F510E433F5119E
:1036B3007A227B00121AE18A0C8B0DAE0CAF0D7AC5
:1036C3003F7B00121AE18A0E8B0FA818A919880CE8
:1036D300890D780C120853750C02750D00780C12C5
:1036E30008537C007D007A227B00121AED740412C9
:1036F30008817A017B03121AE18A0C8B0D7A027B13
:1037030003121AE18A128B13A812A913E50C450DB3
:10371300700AE5086E7003E5096F7025E849700CBF
:10372300E510650E7004E511650F7015E50C450D88
:10373300607BEE4F604E851882851983124D3C6085
:10374300437C017D037A227B00121151E9F8880A38
:10375300705B7C027D037A3F7B00121151E9F8888C
:103763000A704AEEFCEFFD7A227B00121AF3E9702D
:103773000EAC0EAD0F7A3F7B00121AF3E9601175A0
:103783000A018029AE0CAF0DE8496004880E890F49
:103793007810120853780E120853AC08AD09EEFAEC
:1037A300EFFB120BC37404120881E9F50AA90A742A
:1037B300021208817F0C0205C574F112035D74D9EE
:1037C3001208FF7402120AE4E4F0A3F0120BC9E931
:1037D30060030239AD74021208CF8808890978089A
:1037E30012085375080275090078081208537C0003
:1037F3007D007A227B00121AED7404120881E960BD
:10380300030239AD9004D7E493FA7402120AE41266
:1038130045F3C3EA98E49950030239AD750A00757C
:103823000B00750800803E851882851983125F514D
:10383300126EE0124A50851882851983123FFC12DA
:103843002F9CF07A047900120B698A0C9004D7E458
:1038530093FAC3E50C9AEB94004005901175E4F0DC
:10386300120F9B05089004D7125D8740030239AD00
:103873007402120AE41245F3C3E50A98E50B994072
:10388300030239AD74111208CF880C890D780C121C
:103893000853750C08750D00780C12085385080C35
:1038A3007403780C120992E50C2402FCE4350DFD37
:1038B3007A227B00121AED7404120881E970A47451
:1038C30013120AE4E0F47003A3E0F46096050AE53A
:1038D3000A7002050B7404120AE47401F0741312E3
:1038E3000AE41245F3740F120AE4124A50740412E4
:1038F30008D7120B51E97003023866127549741127
:10390300120AE4125E681210C1E50875F016A4F8F5
:10391300A9F0746528FE740A39FF74111208CF8860
:103923000C890D750E00780C12084F7C087D00EE93
:10393300FAEFFB1219AF740312088112618250016E
:10394300097A027B0012020D1239EF123A33A818DA
:10395300A919880C890D780C120853750C02750D82
:1039630000780C120853AC08EC2CFCE433FD7A3FCE
:103973007B00121AED7404120881E96003023846D1
:10398300851882851983E0F47003A3E0F4600302D1
:10399300382AE508123A1D600BC394035006123906
:1039A300BE0238421239D50238457402120AE4E0E5
:1039B300F974271208817F070205C590259E122FEF
:1039C30094EE126EE412441E9025A8E493F8740159
:1039D3009322EE24121239E3F0EE24141239E32277
:1039E300F582E43FF58374FEF0A30422E88E828F10
:1039F30083A3A3A3A3A3A3A3A3123A147401123A08
:103A030014A374AAF0EE2410F582E43FF583E4F0E6
:103A130022126B4FA3A3A3A322ED75F016A4F8A95A
:103A2300F0123A2822746928F582740A12763C222D
:103A3300A3F0124C1DE4F0EE240CF582E43FF58371
:103A4300E4F0A3F0A3F0A3F02274F312035D74FE79
:103A53001208FF851882851983E4F0A3F0F50C02A0
:103A63003AE5E50C75F016A4F8A9F0746528F50A93
:103A7300740A39F50B850C82AE82780A12085375E5
:103A8300080875090078081208538E08740378082B
:103A930012099212365B121AE77404120881E50ABE
:103AA3002414F508E4350BF5097808120853750852
:103AB300027509007808120853EE2EFEE433FFEE78
:103AC300FCEFFD7A3F7B00121AE77404120881852C
:103AD3000A82850B83A3A3A3A3E0F46003123B2410
:103AE300050C9004D7E493F8E50CC3985003023A0D
:103AF30065A818A919880889097808120853750850
:103B03000275090078081208537C007D007A227B35
:103B130000121AE774041208817402120881022C3D
:103B230011851882851983E02401F0A3E03400F0A5
:103B330022C082C0837D008009EA24FF1AEB34FF90
:103B4300FB0D1232B55016123A1CC3940550F2EA1B
:103B53004B70E6746528FA740A39FB80047A007B9B
:103B63000002463274F712035D74F31208FF7E00FD
:103B7300023BFFEF75F017A4F8A9F0127763125F09
:103B83004E75F016A4FAABF074652AF582740A1226
:103B930061A07003A3E0696040EF75F017A4F8AA71
:103BA300F0EAF912776339F5831245F37401120AC7
:103BB300E4E0687003A3E069601FEF75F017A4F8F1
:103BC300EAF9743528FC740C39FD7403120AE4AA6B
:103BD30082AB83121B4DE96013EF75F017A4F8A9AC
:103BE300F0743328FA740C39FB1210CD0F9025AB07
:103BF300E493F8EFC3985003023B760E9004D71278
:103C030072D2501FEE127786F47003A3E0F460EBD8
:103C13001231C0120AE4124A5B120B51E960DC7FD5
:103C23000080CA024A8174F712035D74F31208FF1D
:103C330090040B1257307003023CD5750800802B9B
:103C4300E50875F016A4F8EAF9747928F582740A80
:103C530012763864FE7003A3E0F4600D747728F5E0
:103C630082740A39F583125DBE05089004D7125D8C
:103C730087505FE50875F016A4F8AAF0EAF9123A3E
:103C83002460E6C3940350E1747728F582740A1222
:103C9300572D70ACE50875F016A4F8EAF974652899
:103CA300F8740A39F9E8FEE9FF123D73123D69120F
:103CB30004D51232431231D3120AE4124A5B120BB7
:103CC30051E960A57403120AE4AA82AB83120B9F25
:103CD3008097024A8174F612035D120B8D8A088B5A
:103CE30009A808A909E849602088828983A3A3A3B6
:103CF300A3E06011C39403500CE82414F582E4128A
:103D03005E65123D117901800279000230ECE824EE
:103D130012F582E439F583EAF0A3EBF02274F7128B
:103D2300035DEAFEEBFF9004051257306030900408
:103D33000B125730602890040F1257306020127016
:103D43002E1204D5E97017123D641204D5E96401FB
:103D5300700C8E828F83A3A312701B1204D5024AA8
:103D630086123D73A3A312574790040B12702522AA
:103D73009025A8E493FC740193FD8E828F8322C067
:103D830082C0839003417463F0A3740EF0900343E5
:103D9300745DF0A3740EF09003477471F0A3740C78
:103DA300F0024632C082C0839003457457F0A37477
:103DB3000EF002463274F712035DEAFEEBFF900346
:103DC3007BE06408601CE0640460178E828F83E0EC
:103DD300540364017041125B20F8123E29E064062B
:103DE30070358E828F83A3A3E064FE7003A3E0F497
:103DF30060258E828F83A3A31265617003A3E0699C
:103E03007008EE24151265566005120F1780031211
:103E13000F1DE9F50880037508C2EEFAEFFB121ACD
:103E23005DA908024A86A3E0F58388822274F4120E
:103E3300035D8A088B09123FF8FAE82AFAE4340092
:103E4300FB121A578A0A8B0BAE0AAF0BEE4F605563
:103E5300850882850983E0FC7D0079001219BB8EF9
:103E6300828F83A3122C16120F538E828F83A3A3E8
:103E7300A3A3EAF0A3EB123EAFF8EE28F8E43F1257
:103E83002D74850882850983A3E0C0E0126162D0A6
:103E9300E0F0120F65126158E91243FAE0C0E01234
:103EA30043F0D0E0F0EEFAEFFB0250CCF08508824D
:103EB300850983E02274F412035D74E81208FF8A13
:103EC300088B098C0A8D0BE9FE90037BE064046088
:103ED30005E06408700479C2803CA37808120A7B69
:103EE300EE90038212413B1219BB85188285198318
:103EF3007808120A7B7405120AE4EEF07404120ABD
:103F0300E47401F07407120AE4E4F090037B740292
:103F1300124A5F121E9B0250C774F412035D74E8C9
:103F23001208FFEAFEEBFF90033C125730600302D6
:103F33003FF37A077B00121A5790033C124D3690D9
:103F4300033C1257307003023FEF8E828F83120AB5
:103F5300C190033CE0FCA3E0F5838C82120AB5EE2A
:103F63002404F50AE43FF50B850A82F583E0C0E0FB
:103F730090033C125704A3A3A3D0E0F0EE2405F56D
:103F830008E43FF509850882F583E0C0E090033C2F
:103F9300125712D0E0124A55C0E090033C123FFC86
:103FA300C82406F582E438F583D0E012413B1219A8
:103FB300BB8E828F83120AC1851882851983120AE8
:103FC300B5850A82850B83E0C0E07405120AE4D04C
:103FD300E0123EAFC0E07404120AE4D0E0F07407CC
:103FE300120AE4E4124A5F121E9B800679108002D3
:103FF30079010250C78A828B83E0F8A3E022C08252
:10400300C08390033C125730601090033C125E68EB
:10401300121A5D90033CE4F0A3F0120E8D12106DA2
:1040230002463274F412035D74E81208FF8A0A8BA5
:104033000BECFEEDFF89087428120AE4E0FC7429F6
:10404300120AE4E0FD740F6C7005740F6D6012903A
:1040530011BCE064026005ECC39D500579C10241C7
:10406300387424120AE4120AC190037C120AB5E5DB
:1040730008900382F0EC900380F0EDA3F0742A1211
:104083000AE4E0900383F074FF650A700474FF652B
:104093000B70249011D0E0F47003A3E0F4700C12C1
:1040A30019C7900379EAF0A3EB80129011D0126F35
:1040B3000AE8F0A3E98006900379126176F0EE4FE7
:1040C3006017EEFAEFFB121121E96401700BEEFCAD
:1040D300EFFD7A8D7B03121B5390036CE4F0A3F086
:1040E30090036FF0A3F090038CF09011BCE0640296
:1040F3007008900380740FF0A3F090037B74051293
:10410300413B1219BB7404120AE4E4F090037C12DD
:104113000AC1851882851983120AB5900382E0C00B
:10412300E07405120AE4D0E0F07407120AE4E41222
:104133004A5F121E9B0250C7F07C187D007900AACB
:1041430018AB1922C082C083900340E07003121D94
:104153005D120C2F02463274F012035D900340E0AF
:10416300901174700FE060057900121C6190117456
:10417300E4F0804AE064016008900340E0F9121C17
:10418300619011747401F0900340E0F46030E0F545
:104193000CE4F50DF50EF50FF09080777808120A10
:1041A30099780C790812026E780C12084B7A807B8E
:1041B300009003C6E0F9121B1D74041208817A747F
:1041C3007B117941121E8302333C74F412035D7434
:1041D300E81208FF8A088B098C0A8D0BE9FE90030D
:1041E3007B740112413B1219BB85188285198378B0
:1041F30008120A7B7405120AE4EEF07404120AE44E
:104203007403F07407120AE4E4124A5F121E9B025D
:1042130050C7120C41024A8674F712035D7C00807A
:10422300F174F012035D74FC1208FFE985188285AE
:104233001983F0EAFEEBFF8C0A127549120E818A8C
:10424300088B09EA4509700579CA0243EB8A828B18
:1042530083A3A3A3A3A3A3A3E064FE7003A3E0F437
:10426300700579C30243EB120F538A0C8B0DA80C14
:10427300A90D850882850983A3A3A3A3A3A3A3E010
:10428300687003A3E069700579C20243EB90037978
:104293001245F3850882850983E0687003A3E0690A
:1042A3006012850882850983124567AA08AB0979DC
:1042B30050121E83900379125E681210D385088210
:1042C300850983A3A3A3A3A3A3A3A3A3A3E0049008
:1042D300038C124553121B537402120AE47402F046
:1042E300141208D7120FD18A0C8B0DAE0CAF0DEE42
:1042F3004F70030243E11250507406F0A3A882A941
:104303008390036612628E125AFD120F4D124D2DC9
:10431300EE2413125B0012614E7440F0A3E41243C7
:10432300FAA3A3A3A3A31244171243F0E50A124C62
:104333006A120C05E9F50B60030243E490037B74F6
:1043430009F0E5082407FEE43509FFEEFAEFFB79EF
:104353004B121E838E828F8312455D90036EE0F8AD
:10436300851882851983E068600CE090036E124A19
:104373005F79E1121E839011A91245F39011ABE00E
:10438300687003A3E069602890033E124A509011BD
:10439300AB125E68120F7D124404780C12084B7A3C
:1043A300017B009003C6E0F9121B1D7404120881FF
:1043B3007A007B049003C6E0F9121B2912440474AB
:1043C30002780C1207D0780C12084B7A007B049009
:1043D30003C6E0F9121B1D74041208818003750BD8
:1043E3001090107AE4F0A90B7404023339EE24110F
:1043F300F582E43FF58322F0850882850983A3A330
:10440300229011ABE0F508A3E085080CF50DE4F567
:104413000EF50F2212619812441E22E8F0A3E9F070
:104423002274F612035D74E21208FF85188285195F
:1044330083ECF0A3EDF0EAFEEBFF890890037BE049
:1044430064046005E06408700579C202454E74296E
:10445300120AE4E064FE7003A3E0F4700579C3027A
:10446300454E7C197D00790074051208D71219BBDB
:1044730090037B7403124A5F7950121E83742912CE
:1044830008D7794B121E83851882851983124567D5
:10449300E50890036EF07429120AE412455D74284E
:1044A300120AE4E0F509900366124553121B537494
:1044B300CE55094480C0E0741D120AE4D0E0F074C4
:1044C3002B120AE4E00490038CF0741A120AE474C9
:1044D30002F07429120AE41245F37412120AE4E892
:1044E300F0A3E91245EC741B120AE4124A5074104B
:1044F300120AE4E508F0740D120AE4E4F090038173
:10450300740FF07A817B037954121E8390038074B5
:104513000FF07A807B037947121E83900380E0C3F8
:10452300940F501F7410120AE4E0C0E07402120AE0
:10453300E4D0E0F07404120AE47401F0041208D722
:10454300121EA774051208D7121E89741E0230E9C1
:10455300F0EEFCEFFD7A8D7B0322124A6D90036F20
:1045630012441E22126F0E12441E2274F712035DB0
:10457300EB900383F0120E6F024A8674F712035D09
:1045830074F81208FFEAFEEBFF790090037BE06406
:10459300086005E06404704585188285198374FDFD
:1045A300F0A374FFF0120F4D7402120AE4124D3699
:1045B3007405120AE41245E5A3E0C0E07404120A8C
:1045C300E4D0E01245E6E0C0E07406120AE4D0E06D
:1045D300F07407120AE4E4124A5F120FB974080276
:1045E3004A83E4F08E828F8322F0851882851983B3
:1045F300124A6D22C082C08390034D740DF0A374E0
:104603000DF09003F37413F0A37410F0900351743E
:1046130043F0A3740DF0900353740DF0A3740DF0E5
:104623009003557449F0A3740DF08003120B99D0D5
:1046330083D08202083374070250C974F512035DF4
:104643008A088B098A828B83127383EE4F7003026D
:1046530047F690031412573060158A828B83A3A305
:10466300E0F9EEFAEFFB900315123E2A1204D58E01
:10467300828F83A3A3A3A3A3A3A3A3A3E064026042
:104683000302475F8E828F83A3A3A3A3A3A3E05454
:10469300027003024783850882850983A3A3E0642C
:1046A300E97003024783850882850983A3A3E06435
:1046B300CD7003024783850882850983A3A3E06441
:1046C300F070030247838E828F83A3A3A3A3A3A3C4
:1046D300A3A3A3A3E070169011C0E0048E828F837E
:1046E300A3A3A3A3A3A3A3A3A3A3F0801012480788
:1046F300120FE9E970077A307B01121CFD850882ED
:10470300850983A3A3E0701F750A0080097A367BAD
:1047130001121CFD050A850882850983A3A3A3E072
:10472300F8E50AC39840E68E828F83A3A3A3A3A3CD
:10473300A3A3A3126B43A3A3A3A37404F09011C177
:10474300126192E81247F9121B2FEA4B4C4D700C81
:104753007A207B009003C6E0F9121A0F8E828F83B2
:10476300A3A3A3A3A3A3A3A3A3E0640260128E82C3
:104773008F83A3A3A3A3A3A3A3A3A3E0640670733C
:104783008E828F83A3A3A3A3A3A3E0A2E050648597
:104793000882850983A3A3E0F9EEFAEFFB121F2B2E
:1047A3008E828F83A3A3A3A3A3A3E054FEF0124896
:1047B30007120FE9E9850882850983A3A3702AE01C
:1047C30070237A2F7B01121CFD7E008508828509E8
:1047D30083A3A3A3E0F8EEC39850187A367B0112A3
:1047E3001CFD0E80E67A318005E070077A2D7B018F
:1047F300121CFD0231DBF0A3E9F07A207B00900369
:10480300C6E0F9228E828F831270251257472274D5
:10481300EC12035D74DB1208FFEAFEEBFF8C108DD4
:1048230011750E0074051208DF121FC17412120AEB
:10483300E4E070087415120AE4E060207405120ABB
:10484300E4E0A2E6501B8E828F83A3A3A3A3A3A3BA
:10485300A3A3A3125E68120FE9E960057A35024942
:104863005B7405120AE4E0540C64047005750D01D1
:104873008003750D00E0A2E55030750E01E50DA231
:10488300E04027120F538A088B09A808A909125B75
:1048930020687003A3E069601174051208DF1265D4
:1048A30070121F3DE960030249597405120AE4E0DE
:1048B300A2E650227406120AE4E054037018740549
:1048C300120AE4E0540C640C600CE0540C640860BD
:1048D30005750C018003750C007405120AE4E0549D
:1048E30003F8740268700E74051208DF1265701203
:1048F3001F9D024A457401687041E50CA2E0500B0C
:1049030074051208DF126570121FA974051208CF0F
:104913007403120AE4E8F0A3E9124A658518828554
:104923001983E8F0A3E9124A55C0E07402120AE4BD
:10493300D0E0124A5F122033024A45E86003024A7C
:1049430045900363E0640170178E828F83A3A3A352
:10495300A3A3A3E0700A7A347B01121CFD024A452B
:104963007424120AE47402124A65741C120AE412D3
:104973004A50E50CA2E0500B74051208DF12657073
:10498300121FA97439120AE47808120A99E50DA2D4
:10499300E0EE5072240F126556C0E07417120AE459
:1049A300D0E0F09003161257307003024A45120FFD
:1049B300538A128B13A812A913741C120AE4E06819
:1049C3007003A3E069707B780812084BE50EF508C5
:1049D30078081208578E828F83A3A3A3A3E0F50858
:1049E30078081208577810120853A90C740D12088E
:1049F300DF74241208D7900316125EDA1204D574FA
:104A030008120881803C126554F50C780C12085783
:104A1300780812084BE50EF5087808120857781045
:104A2300120853900379120694EE2412126556F974
:104A330074261208DF740F1208D7121F1F740A128C
:104A4300088174250237B4A3A3A3A3A3A3E8124444
:104A53001F22126B4BA3E022E8F0A3E9F0AA18ABE4
:104A63001922F0124C1D124A6D22124A7122E0F8EB
:104A7300A3E0F92274F712035D121C3D8005740D47
:104A83001208817F010205C574F712035D121C49E8
:104A930080F174F712035D121C5580E7C082C08356
:104AA300121C4F02463274F712035D121C5B80D353
:104AB30074F712035D7409120AE4E0F5087808122A
:104AC3000857121C6D740180B7C082C083121C7911
:104AD300024632C082C083121C7F02463274F71230
:104AE300035D121C85809C74F712035DEAFEEBFFE5
:104AF30089087401650870147900120D859025B733
:104B0300E493FC7900EEFAEFFB120CFB024A867485
:104B1300F712035D121C73024A8674F412035D7468
:104B2300F91208FFE9FE8A088B098C0A8D0B901095
:104B3300B1125730602BEE851882851983F074010A
:104B4300120AE47808120A7B7413120AE41245F37A
:104B53007405120AE4124A5B9010B1125EDA120471
:104B6300D5024639C082C083121CBB02463274F799
:104B730012035D121C91024A8674F712035D9011B1
:104B830077E0F97E00800B124DEC540D6401700147
:104B9300190E124D835003E970ED024A8674F71221
:104BA300035D901178E0F97E00800B124DEC548D7B
:104BB30064817001190E124D835003E970ED024AAE
:104BC3008674F212035D890BE975F006A4A9F0243B
:104BD3000CF508E439F509E5082AFAE43509FB126E
:104BE3001A578A0C8B0DAE0CAF0DEE4F6021AC083B
:104BF300AD0979001219BB124C19E50BF0EE25082B
:104C0300F8EF3509F98E828F83A3A3A3124A4AEEE4
:104C1300FAEFFB025DCB124C1D22EE12657F3FF5CE
:104C2300832274F612035DEAFEEBFF120CD7901198
:104C330076E0F8E9C3984009900349125E68120CC4
:104C4300DDEE2402F8E43FF98808890990034B124A
:104C5300628E90034BE004124C6A120CE3850882C7
:104C6300850983E002284DF0EEFAEFFB22C082C0F3
:104C7300837900900349800109125E688A828B83DD
:104C8300E582458370F202463274F712035DEAFE51
:104C9300EBFFEE4F605A90034912573060528882FF
:104CA30089837A007B00EE65827003EF658360136E
:104CB300AA82AB831245F388828983E582458360A8
:104CC3002F80E3900349125F51687002EF698E826F
:104CD3008F8370081245F3900349800312701312F7
:104CE3004A50EEFAEFFB122003EEFAEFFB121A5DC5
:104CF300024A86C082C083900349800488828983E4
:104D0300125730600A888289831236694D70ED8AA2
:104D1300828B83E4F0A3F0E849600688828983806C
:104D230003900349124D36024632EE241AF582E40B
:104D33003FF583EAF0A3EBF022125747EA4B2274C4
:104D4300F712035D90034980048A828B83124D3CE2
:104D530060277E0080010E124D8350EDEE75F00644
:104D6300A4FCADF0EA2CFCEB3DFDEC2410F582E451
:104D73003DF583E06970DF80047A007B00024A8698
:104D8300124DE2EEC3982274F712035D7D00800199
:104D93000D124DDEEDC398503BED75F006A4FEA851
:104DA300F0E8FFEA2EFEEB3FFFEE24101265566992
:104DB30070DEED75F006A4FEE8FFEA2EFAEB3FFB8A
:104DC300EA2411F582E4125E8D4CF0EA240CFA50C9
:104DD300070B80047A007B00024A86124DE222EA26
:104DE30012657F3BF583E0F822EE75F006A4FCAD77
:104DF300F0EA2CFCEB3DFDEC2411F582E43DF58358
:104E0300E02274F612035D120DF17B008016EB7540
:104E1300F006A4F8A9F01262BCE4124E9AF0A312B1
:104E23006284F00B9025C412616F40E27A00801611
:104E33008A0875090074037808120992125D8F12AB
:104E4300618DA3E4F00A9025AAE493F8EAC398409D
:104E5300DF7900801A89087509007403780812093C
:104E630092745B12738B740F1271C4122C17099016
:104E730025B112699240DE9025B9E493900357F06F
:104E83009080771206907A107B009003C6E0F912A7
:104E93001B2374040230E91269A0A32274F01203E5
:104EA3005D74F51208FF8A088B09890A8C0BE9A245
:104EB300E050147508FC7509FFA2E15005D2E40225
:104EC3004F68D2E3024F68120DD98A0C8B0DA80CE0
:104ED300A90D90036CE0687003A3E069600EAC0A4F
:104EE3007902AA08AB09120DD3E9700579000250C3
:104EF30039E50AF50C780C12085779027CFE7DFF20
:104F0300AA08AB09120D4F7401120881E96003026C
:104F13005037E50AC2E5F50A9003B9E07049E50A9E
:104F2300A2E6404374031208DFAA08AB09120B2D53
:104F3300E9702E12570B1210AF8A0C8B0DAE0CAF0B
:104F43000DEE4F6022EE2402FAE43FFB120B27E939
:104F53006015EE2402FCE43FFD74031208D7121B14
:104F630053E50AD2E5F50A90034CE0F50C90036C87
:104F73001251FB780E1208537D017C0090034CE024
:104F8300F9AA0EAB0F120D917402120881E9F89081
:104F9300034CE004F0E86003025037E50AA2E55051
:104FA30004740E80027406C0E07401120AE4D0E0B7
:104FB300124A5F120FD18A0E8B0FAE0EAF0FEE4F58
:104FC300606E125AFD120F4D124D2D125050740186
:104FD300F07478550AA31275B5E50C1275B5A3E5FF
:104FE30008F0E50912503EE4F0E50AA2E5500F741B
:104FF300031208DFE82406FAE439FB121B538E82FE
:105003008F83A3A374FDF0A374FFF0E50B601890E6
:1050130025B8E493F8E50BC398500CEE2413F582FE
:10502300E43FF583E50BF0EEFAEFFB120C05800687
:105033007910800279C7740B02333988828983A37C
:10504300A3A3A312504A221269A4A3A322EE1265BA
:105053007B3F12505922F583124A71888289832239
:1050630074F412035D7A007B109003C6E0F9121BFF
:105073002FEA4B4C4D60089003D87401F0804390A5
:10508300115AE064019011BD7006E0FC79018004BF
:10509300E0FC79037A007B00120CFB9025A6E493D5
:1050A300F508740193F509E4F50AF50B780812087D
:1050B3004B7A007B109003C6E0F9121B1D74041297
:1050C3000881800574181208817F040205C574F0F5
:1050D30012035D8A088B098C0A8D0B890C120FE968
:1050E300E960057AFF0251BF9011BCE064026003DE
:1050F3000251EB9025C3E493F9AA08AB09120E03FE
:10510300E960030251E57900AA08AB09120DD9A998
:105113000C120DCD8A0E8B0FAE0EAF0FEE4F700338
:105123000251D18E828F83A3A3A3A3A31268A87075
:1051330073125E688E828F83A3A3A3A3A3A3E054F9
:1051430018604D9025B6E4938E828F83A3A3A3A307
:10515300F07410120AE412754C7412120AE412511C
:10516300FBEA650A7003EB650B6012EA6C7002EBF5
:105173006D600AEA650E7003EB650F701B780E1203
:105183000853AA0AAB0B1210EB74021208818008B1
:1051930090036B126B3AA3F074FE6A700374FF6B97
:1051A300601E8051A3A3A3E06403602A8E828F83D1
:1051B300A3A3A3A3A3E0640470067AFE7BFF803558
:1051C3008E828F83A3A3A3A3A3E06402700890033A
:1051D300B8E0640270127907AA08AB09120E03E95A
:1051E3006006AA08AB09800DAA08AB0990034D120B
:1051F3005EDA1204D502333CE0F50EA3E0F50F228C
:1052030074F712035DEAFEEBFF120B7BE9700AEE03
:10521300FAEFFB120B87E96006EEFAEFFB80047AE4
:10522300FE7BFF024A8674EE12035D8A0A8B0B8CA7
:105233000C8D0D890E750800120FE9E979006003E2
:1052430002538FAA0AAB0B120DD9A90E120DCD8AE8
:10525300108B11AE10AF11EE4F60198E828F83A3A6
:10526300A3A3A3A3E0640270529003B8E0640270A6
:105273000302538DAA0AAB0B125ED71204D5120B8D
:105283008D8A108B11A810A911E849700302538D60
:1052930088828983A3A3A3A3A3E0A2E040030253CC
:1052A3008D750901A2E1504B7901AC0AAD0BAA0C33
:1052B300AB0D120D2BE9704702538D8E828F83A3A2
:1052C300A3A3A3A3E0640360258E828F83A3A3A378
:1052D300A3A3E06401600302538D79078E828F8359
:1052E300A3A3125E68120E03E9600302538D7509CE
:1052F30002801088828983A3A3A3A3A3D2E1F0EE43
:105303004F603A8E828F83A3A3A3A3A3A3E0541871
:10531300602B7508018E828F83A3A31206947510E8
:10532300FE7511FF78101208537900AC0AAD0BAA71
:105333000CAB0D120DE57404120881804D7900AA9F
:105343000CAB0D120DD98A108B11A810A911900363
:105353006CE0687003A3E06970149025B7E493FCD4
:10536300A90EAA0AAB0B120CFB750801801CA90934
:10537300AC0AAD0BAA0CAB0D120D2BE9700C750822
:1053830001A90EAA0AAB0B120D85A9088003120806
:10539300817F0A0205C574EB12035D74F01208FFE6
:1053A3008A0C8B0D8C088D097512069003F9125720
:1053B30030601712570B1210D98A108B11EA45115E
:1053C30060088A828B83A3E06068E50C241DF50ED8
:1053D300E4350DF50F850E82125927F5148882895D
:1053E30083A3A3A3E0FA88828983A3A3A3A3E0F8FA
:1053F300E4C8F9EA28FEE439FFAA08AB09120D8BC9
:10540300850E82850F83125712E029F50BE50AA258
:10541300E5500375120E7487550A700F7418550AF8
:10542300641860071256F56512600C7AD37B00127C
:105433001CFD79000256DF530A78C3EE94F8EF940B
:10544300FF50247900EEFAEFFB120DCD8A0E8B0F7D
:10545300A80EA90FE849600F88828983A3A3A3A399
:10546300A3A3E0541870CB78081208537D00AC0B4B
:10547300A91412573C120D917402120881E9F874B1
:10548300036860AE7425120AE41273906003025538
:10549300567418550A7003025611E50AD2E0F50A4C
:1054A300A2E45004D2E1F50AA90A12573C120DCD29
:1054B3008A128B13A812A913E849605C8882898336
:1054C300A3A3A3A3A3A3E05418604D88828983A355
:1054D300A3A3A3A3E06401703FE510451160391253
:1054E300754988828983A3A3125E681210D98A1230
:1054F3008B13A812A913E849601E88828983A3E04D
:105503006016851082851183A3E0FA88828983A3BC
:10551300E0C39A5003025435E50AF51078101208D7
:1055230057125736120D4F7401120881E970247C0B
:10553300007D00850E82850F8374FFF0125B18A334
:10554300A3A3E060061256E912754CA90B12573C4F
:10555300120CA7850E82850F83E0F47003A3E0F499
:10556300603C9003B8E06402700302543512573C68
:1055730090034F125EDA1204D5EA65087003EB65F7
:10558300096003025435EEFAEFFB90034F125EDA23
:105593001204D5850E82850F83EAF0A3EBF0780819
:1055A3001208537D01AC0BA91412573C120D9174D0
:1055B30002120881A90AEEFAEFFB120DD98A088BB1
:1055C30009A808A90990036CE0687003A3E0696067
:1055D300030256D1EEFAEFFB120B8D8A088B09A852
:1055E30008A909E849606F88828983A3A3A3A3E07C
:1055F3006401600D88828983A3A3A3A3E06402707E
:1056030055AC18AD19EEFAEFFB120B2D8056900333
:1056130065E06014E50AF510781012085712573642
:10562300120D4F7401120881E50AF5107810120863
:105633005779027CFE7DFFEEFAEFFB120D4F7401EA
:10564300120881E96003025556850E82850F837423
:10565300FFF0A30255A0120F4DEAFCEBFDAA18AB15
:1056630019121B53850C82850D83A3A3A3A3A3A3A4
:10567300A3A3E06401700E1256E912754C7408126C
:1056830008D7121B5312590F125702E04430F50882
:10569300780812085774011208CF88088909780816
:1056A300120853740B1208CF880889097808120866
:1056B30053E514F50878081208577900EEFCEFFD5E
:1056C30012573C120D2574061208810254351259E3
:1056D3000FF583125712E50BF0120F6574101208C1
:1056E300817F0D0205C5E50C2415F582E4350DF522
:1056F3008322E50C2417F582E4350DF583E022F5CA
:1057030083E0F8123E29A32290037912594322120F
:105713007025A3A3A3A3A322E50D75F006A4F8AAFD
:10572300F0EAF974BF28F582740E39F583124A6DD5
:10573300E849227901AC08AD09126579350D125794
:105743004522F583E0FAA3E0FB2274EE12035D74B5
:10575300F01208FF8A0C8B0DECFAEDFB750F089025
:1057630003F912573060311275491210D98A088B28
:1057730009AC08AD09EC4D601F8C828D83A3E070EA
:10578300171261825001097A027B0012020DE88C24
:10579300828D83F0A37407F012590F125927F50E67
:1057A30088828983125919E0FAE4CAFBEC2AFEE4E1
:1057B3003BFF88828983A3A3125919A3A3E0FBECBF
:1057C300F508E43BF50988828983A3A3A3A3A3A3D4
:1057D300A3E0F50BE50AA2E45003750F10A2E55010
:1057E300067408250FF50F748F550A70071256F5C6
:1057F300650F600A7AD37B00121CFD02590A530A13
:10580300707800E50AA2E4501FE50C241D1256F936
:105813002408FCA3E03400FD74081208D7121B53BC
:105823007808E50AC2E4F50AE50AA2E55022E50C88
:10583300241D1256F928F8A3E03400F9E82408FCE3
:10584300E439FDAA18AB19121B53E50AC2E5F50AA0
:10585300A90EEEFAEFFB120DC79025AA126992501A
:105863002989107511007403781012099274202588
:1058730010F582740F3511F583E0F8E50BC39850EA
:1058830007E50BF078008004807D780490036CE0DA
:105893006E7003A3E06F605FE87019E50AF50F7897
:1058A3000F120857125936120D4F7401120881E96D
:1058B30070558005740468704E780A120857740195
:1058C3001208CF880C890D780C120853740B120838
:1058D300CF880C890D780C120853E50EF50A780A67
:1058E300120857A90BAC08AD09EEFAEFFB120D2510
:1058F30074061208818010780A120857125936125A
:105903000D4F74011208817410025391E50C241D8C
:10591300F582E4350D22A3A3A3E0FC88828983A347
:10592300A3A3A322125059A3E0F50A88828983A373
:10593300A3E0227901126579350DF58312594322CB
:10594300E0FCA3E0FDAA08AB092274EB12035D742B
:10595300F51208FF8A088B098C0A8D0B89147420B1
:10596300120AE4E0F511F9120DC7E9F50C9025AA26
:10597300126992501B750D007403780C120992740E
:105983001E250CF582740F350DF5831251FB801E15
:1059930090034F1257306010AA08AB09123E2A1227
:1059A30004D58A0E8B0F8006750EFE750FFF7401EA
:1059B300120AE47408F07425120AE4E0F510A2E474
:1059C30050087401120AE47410F0E510A2E55009BE
:1059D3007401120AE4E02408F0AA18AB19120FD1DB
:1059E3008A0C8B0DAE0CAF0DEE4F7003025AF812FA
:1059F3005AFD120F4D124D2D7421120AE4E0F512D7
:105A0300A3E0F51374031208DFAA0EAB0F120B2DDC
:105A1300E96013EE2416125B0074031208CFEE2420
:105A230018122FA08027E510A2E45022E50E650886
:105A33007004E50F65097016EE2416125B00EE2460
:105A430018F582E43FF583E512F0A3E513F0125B4A
:105A530020F50CA3E0F50D850C82F5837402F0A309
:105A6300E510125B0AE511125B0AA3E508F0E509EC
:105A7300850C82850D83A3A3A3125B18E50AF0E5C9
:105A83000B850C82850D83A3A3A3A3A3A3F0AA0E66
:105A9300AB0F120D8BE92514850C82850D83A3A30F
:105AA300A3A3A3A3A3F0750800E510A2E45013ACCD
:105AB30012AD13E50C2408FAE4350DFB121B5375E4
:105AC3000808E510A2E5501B7423120AE412754C72
:105AD300E50C2508F8E4350DF9E82408FAE439FB68
:105AE300121B538E828F83A3A3E50EF0A3E50F123F
:105AF3004C6A120C05740B0256E1EE2417F582E48E
:105B03003FF5837401F022125B0E22F0850C82852F
:105B13000D83A3A322A3125B0EA3A3A322124C1DE6
:105B2300E02274F412035D8A088B09ECFEEDFF7525
